:020000000000FE
:020001000001FC
:020002000002FA
:020003000003F8
:020004000004F6
:020005000005F4
:020006000006F2
:020007000007F0
:020008000008EE
:020009000009EC
:02000A00000AEA
:02000B00000BE8
:02000C00000CE6
:02000D00000DE4
:02000E00000EE2
:02000F00000FE0
:020010000010DE
:020011000011DC
:020012000012DA
:020013000013D8
:020014000014D6
:020015000015D4
:020016000016D2
:020017000017D0
:020018000018CE
:020019000019CC
:02001A00001ACA
:02001B00001BC8
:02001C00001CC6
:02001D00001DC4
:02001E00001EC2
:02001F00001FC0
:020020000020BE
:020021000021BC
:020022000022BA
:020023000023B8
:020024000024B6
:020025000025B4
:020026000026B2
:020027000027B0
:020028000028AE
:020029000029AC
:02002A00002AAA
:02002B00002BA8
:02002C00002CA6
:02002D00002DA4
:02002E00002EA2
:02002F00002FA0
:0200300000309E
:0200310000319C
:0200320000329A
:02003300003398
:02003400003496
:02003500003594
:02003600003692
:02003700003790
:0200380000388E
:0200390000398C
:02003A00003A8A
:02003B00003B88
:02003C00003C86
:02003D00003D84
:02003E00003E82
:02003F00003F80
:0200400000407E
:0200410000417C
:0200420000427A
:02004300004378
:02004400004476
:02004500004574
:02004600004672
:02004700004770
:0200480000486E
:0200490000496C
:02004A00004A6A
:02004B00004B68
:02004C00004C66
:02004D00004D64
:02004E00004E62
:02004F00004F60
:0200500000505E
:0200510000515C
:0200520000525A
:02005300005358
:02005400005456
:02005500005554
:02005600005652
:02005700005750
:0200580000584E
:0200590000594C
:02005A00005A4A
:02005B00005B48
:02005C00005C46
:02005D00005D44
:02005E00005E42
:02005F00005F40
:0200600000603E
:0200610000613C
:0200620000623A
:02006300006338
:02006400006436
:02006500006534
:02006600006632
:02006700006730
:0200680000682E
:0200690000692C
:02006A00006A2A
:02006B00006B28
:02006C00006C26
:02006D00006D24
:02006E00006E22
:02006F00006F20
:0200700000701E
:0200710000711C
:0200720000721A
:02007300007318
:02007400007416
:02007500007514
:02007600007612
:02007700007710
:0200780000780E
:0200790000790C
:02007A00007A0A
:02007B00007B08
:02007C00007C06
:02007D00007D04
:02007E00007E02
:02007F00007F00
:020080000080FE
:020081000081FC
:020082000082FA
:020083000083F8
:020084000084F6
:020085000085F4
:020086000086F2
:020087000087F0
:020088000088EE
:020089000089EC
:02008A00008AEA
:02008B00008BE8
:02008C00008CE6
:02008D00008DE4
:02008E00008EE2
:02008F00008FE0
:020090000090DE
:020091000091DC
:020092000092DA
:020093000093D8
:020094000094D6
:020095000095D4
:020096000096D2
:020097000097D0
:020098000098CE
:020099000099CC
:02009A00009ACA
:02009B00009BC8
:02009C00009CC6
:02009D00009DC4
:02009E00009EC2
:02009F00009FC0
:0200A00000A0BE
:0200A10000A1BC
:0200A20000A2BA
:0200A30000A3B8
:0200A40000A4B6
:0200A50000A5B4
:0200A60000A6B2
:0200A70000A7B0
:0200A80000A8AE
:0200A90000A9AC
:0200AA0000AAAA
:0200AB0000ABA8
:0200AC0000ACA6
:0200AD0000ADA4
:0200AE0000AEA2
:0200AF0000AFA0
:0200B00000B09E
:0200B10000B19C
:0200B20000B29A
:0200B30000B398
:0200B40000B496
:0200B50000B594
:0200B60000B692
:0200B70000B790
:0200B80000B88E
:0200B90000B98C
:0200BA0000BA8A
:0200BB0000BB88
:0200BC0000BC86
:0200BD0000BD84
:0200BE0000BE82
:0200BF0000BF80
:0200C00000C07E
:0200C10000C17C
:0200C20000C27A
:0200C30000C378
:0200C40000C476
:0200C50000C574
:0200C60000C672
:0200C70000C770
:0200C80000C86E
:0200C90000C96C
:0200CA0000CA6A
:0200CB0000CB68
:0200CC0000CC66
:0200CD0000CD64
:0200CE0000CE62
:0200CF0000CF60
:0200D00000D05E
:0200D10000D15C
:0200D20000D25A
:0200D30000D358
:0200D40000D456
:0200D50000D554
:0200D60000D652
:0200D70000D750
:0200D80000D84E
:0200D90000D94C
:0200DA0000DA4A
:0200DB0000DB48
:0200DC0000DC46
:0200DD0000DD44
:0200DE0000DE42
:0200DF0000DF40
:0200E00000E03E
:0200E10000E13C
:0200E20000E23A
:0200E30000E338
:0200E40000E436
:0200E50000E534
:0200E60000E632
:0200E70000E730
:0200E80000E82E
:0200E90000E92C
:0200EA0000EA2A
:0200EB0000EB28
:0200EC0000EC26
:0200ED0000ED24
:0200EE0000EE22
:0200EF0000EF20
:0200F00000F01E
:0200F10000F11C
:0200F20000F21A
:0200F30000F318
:0200F40000F416
:0200F50000F514
:0200F60000F612
:0200F70000F710
:0200F80000F80E
:0200F90000F90C
:0200FA0000FA0A
:0200FB0000FB08
:0200FC0000FC06
:0200FD0000FD04
:0200FE0000FE02
:0200FF0000FF00
:020100000100FC
:020101000101FA
:020102000102F8
:020103000103F6
:020104000104F4
:020105000105F2
:020106000106F0
:020107000107EE
:020108000108EC
:020109000109EA
:02010A00010AE8
:02010B00010BE6
:02010C00010CE4
:02010D00010DE2
:02010E00010EE0
:02010F00010FDE
:020110000110DC
:020111000111DA
:020112000112D8
:020113000113D6
:020114000114D4
:020115000115D2
:020116000116D0
:020117000117CE
:020118000118CC
:020119000119CA
:02011A00011AC8
:02011B00011BC6
:02011C00011CC4
:02011D00011DC2
:02011E00011EC0
:02011F00011FBE
:020120000120BC
:020121000121BA
:020122000122B8
:020123000123B6
:020124000124B4
:020125000125B2
:020126000126B0
:020127000127AE
:020128000128AC
:020129000129AA
:02012A00012AA8
:02012B00012BA6
:02012C00012CA4
:02012D00012DA2
:02012E00012EA0
:02012F00012F9E
:0201300001309C
:0201310001319A
:02013200013298
:02013300013396
:02013400013494
:02013500013592
:02013600013690
:0201370001378E
:0201380001388C
:0201390001398A
:02013A00013A88
:02013B00013B86
:02013C00013C84
:02013D00013D82
:02013E00013E80
:02013F00013F7E
:0201400001407C
:0201410001417A
:02014200014278
:02014300014376
:02014400014474
:02014500014572
:02014600014670
:0201470001476E
:0201480001486C
:0201490001496A
:02014A00014A68
:02014B00014B66
:02014C00014C64
:02014D00014D62
:02014E00014E60
:02014F00014F5E
:0201500001505C
:0201510001515A
:02015200015258
:02015300015356
:02015400015454
:02015500015552
:02015600015650
:0201570001574E
:0201580001584C
:0201590001594A
:02015A00015A48
:02015B00015B46
:02015C00015C44
:02015D00015D42
:02015E00015E40
:02015F00015F3E
:0201600001603C
:0201610001613A
:02016200016238
:02016300016336
:02016400016434
:02016500016532
:02016600016630
:0201670001672E
:0201680001682C
:0201690001692A
:02016A00016A28
:02016B00016B26
:02016C00016C24
:02016D00016D22
:02016E00016E20
:02016F00016F1E
:0201700001701C
:0201710001711A
:02017200017218
:02017300017316
:02017400017414
:02017500017512
:02017600017610
:0201770001770E
:0201780001780C
:0201790001790A
:02017A00017A08
:02017B00017B06
:02017C00017C04
:02017D00017D02
:02017E00017E00
:02017F00017FFE
:020180000180FC
:020181000181FA
:020182000182F8
:020183000183F6
:020184000184F4
:020185000185F2
:020186000186F0
:020187000187EE
:020188000188EC
:020189000189EA
:02018A00018AE8
:02018B00018BE6
:02018C00018CE4
:02018D00018DE2
:02018E00018EE0
:02018F00018FDE
:020190000190DC
:020191000191DA
:020192000192D8
:020193000193D6
:020194000194D4
:020195000195D2
:020196000196D0
:020197000197CE
:020198000198CC
:020199000199CA
:02019A00019AC8
:02019B00019BC6
:02019C00019CC4
:02019D00019DC2
:02019E00019EC0
:02019F00019FBE
:0201A00001A0BC
:0201A10001A1BA
:0201A20001A2B8
:0201A30001A3B6
:0201A40001A4B4
:0201A50001A5B2
:0201A60001A6B0
:0201A70001A7AE
:0201A80001A8AC
:0201A90001A9AA
:0201AA0001AAA8
:0201AB0001ABA6
:0201AC0001ACA4
:0201AD0001ADA2
:0201AE0001AEA0
:0201AF0001AF9E
:0201B00001B09C
:0201B10001B19A
:0201B20001B298
:0201B30001B396
:0201B40001B494
:0201B50001B592
:0201B60001B690
:0201B70001B78E
:0201B80001B88C
:0201B90001B98A
:0201BA0001BA88
:0201BB0001BB86
:0201BC0001BC84
:0201BD0001BD82
:0201BE0001BE80
:0201BF0001BF7E
:0201C00001C07C
:0201C10001C17A
:0201C20001C278
:0201C30001C376
:0201C40001C474
:0201C50001C572
:0201C60001C670
:0201C70001C76E
:0201C80001C86C
:0201C90001C96A
:0201CA0001CA68
:0201CB0001CB66
:0201CC0001CC64
:0201CD0001CD62
:0201CE0001CE60
:0201CF0001CF5E
:0201D00001D05C
:0201D10001D15A
:0201D20001D258
:0201D30001D356
:0201D40001D454
:0201D50001D552
:0201D60001D650
:0201D70001D74E
:0201D80001D84C
:0201D90001D94A
:0201DA0001DA48
:0201DB0001DB46
:0201DC0001DC44
:0201DD0001DD42
:0201DE0001DE40
:0201DF0001DF3E
:0201E00001E03C
:0201E10001E13A
:0201E20001E238
:0201E30001E336
:0201E40001E434
:0201E50001E532
:0201E60001E630
:0201E70001E72E
:0201E80001E82C
:0201E90001E92A
:0201EA0001EA28
:0201EB0001EB26
:0201EC0001EC24
:0201ED0001ED22
:0201EE0001EE20
:0201EF0001EF1E
:0201F00001F01C
:0201F10001F11A
:0201F20001F218
:0201F30001F316
:0201F40001F414
:0201F50001F512
:0201F60001F610
:0201F70001F70E
:0201F80001F80C
:0201F90001F90A
:0201FA0001FA08
:0201FB0001FB06
:0201FC0001FC04
:0201FD0001FD02
:0201FE0001FE00
:0201FF0001FFFE
:020200000200FA
:020201000201F8
:020202000202F6
:020203000203F4
:020204000204F2
:020205000205F0
:020206000206EE
:020207000207EC
:020208000208EA
:020209000209E8
:02020A00020AE6
:02020B00020BE4
:02020C00020CE2
:02020D00020DE0
:02020E00020EDE
:02020F00020FDC
:020210000210DA
:020211000211D8
:020212000212D6
:020213000213D4
:020214000214D2
:020215000215D0
:020216000216CE
:020217000217CC
:020218000218CA
:020219000219C8
:02021A00021AC6
:02021B00021BC4
:02021C00021CC2
:02021D00021DC0
:02021E00021EBE
:02021F00021FBC
:020220000220BA
:020221000221B8
:020222000222B6
:020223000223B4
:020224000224B2
:020225000225B0
:020226000226AE
:020227000227AC
:020228000228AA
:020229000229A8
:02022A00022AA6
:02022B00022BA4
:02022C00022CA2
:02022D00022DA0
:02022E00022E9E
:02022F00022F9C
:0202300002309A
:02023100023198
:02023200023296
:02023300023394
:02023400023492
:02023500023590
:0202360002368E
:0202370002378C
:0202380002388A
:02023900023988
:02023A00023A86
:02023B00023B84
:02023C00023C82
:02023D00023D80
:02023E00023E7E
:02023F00023F7C
:0202400002407A
:02024100024178
:02024200024276
:02024300024374
:02024400024472
:02024500024570
:0202460002466E
:0202470002476C
:0202480002486A
:02024900024968
:02024A00024A66
:02024B00024B64
:02024C00024C62
:02024D00024D60
:02024E00024E5E
:02024F00024F5C
:0202500002505A
:02025100025158
:02025200025256
:02025300025354
:02025400025452
:02025500025550
:0202560002564E
:0202570002574C
:0202580002584A
:02025900025948
:02025A00025A46
:02025B00025B44
:02025C00025C42
:02025D00025D40
:02025E00025E3E
:02025F00025F3C
:0202600002603A
:02026100026138
:02026200026236
:02026300026334
:02026400026432
:02026500026530
:0202660002662E
:0202670002672C
:0202680002682A
:02026900026928
:02026A00026A26
:02026B00026B24
:02026C00026C22
:02026D00026D20
:02026E00026E1E
:02026F00026F1C
:0202700002701A
:02027100027118
:02027200027216
:02027300027314
:02027400027412
:02027500027510
:0202760002760E
:0202770002770C
:0202780002780A
:02027900027908
:02027A00027A06
:02027B00027B04
:02027C00027C02
:02027D00027D00
:02027E00027EFE
:02027F00027FFC
:020280000280FA
:020281000281F8
:020282000282F6
:020283000283F4
:020284000284F2
:020285000285F0
:020286000286EE
:020287000287EC
:020288000288EA
:020289000289E8
:02028A00028AE6
:02028B00028BE4
:02028C00028CE2
:02028D00028DE0
:02028E00028EDE
:02028F00028FDC
:020290000290DA
:020291000291D8
:020292000292D6
:020293000293D4
:020294000294D2
:020295000295D0
:020296000296CE
:020297000297CC
:020298000298CA
:020299000299C8
:02029A00029AC6
:02029B00029BC4
:02029C00029CC2
:02029D00029DC0
:02029E00029EBE
:02029F00029FBC
:0202A00002A0BA
:0202A10002A1B8
:0202A20002A2B6
:0202A30002A3B4
:0202A40002A4B2
:0202A50002A5B0
:0202A60002A6AE
:0202A70002A7AC
:0202A80002A8AA
:0202A90002A9A8
:0202AA0002AAA6
:0202AB0002ABA4
:0202AC0002ACA2
:0202AD0002ADA0
:0202AE0002AE9E
:0202AF0002AF9C
:0202B00002B09A
:0202B10002B198
:0202B20002B296
:0202B30002B394
:0202B40002B492
:0202B50002B590
:0202B60002B68E
:0202B70002B78C
:0202B80002B88A
:0202B90002B988
:0202BA0002BA86
:0202BB0002BB84
:0202BC0002BC82
:0202BD0002BD80
:0202BE0002BE7E
:0202BF0002BF7C
:0202C00002C07A
:0202C10002C178
:0202C20002C276
:0202C30002C374
:0202C40002C472
:0202C50002C570
:0202C60002C66E
:0202C70002C76C
:0202C80002C86A
:0202C90002C968
:0202CA0002CA66
:0202CB0002CB64
:0202CC0002CC62
:0202CD0002CD60
:0202CE0002CE5E
:0202CF0002CF5C
:0202D00002D05A
:0202D10002D158
:0202D20002D256
:0202D30002D354
:0202D40002D452
:0202D50002D550
:0202D60002D64E
:0202D70002D74C
:0202D80002D84A
:0202D90002D948
:0202DA0002DA46
:0202DB0002DB44
:0202DC0002DC42
:0202DD0002DD40
:0202DE0002DE3E
:0202DF0002DF3C
:0202E00002E03A
:0202E10002E138
:0202E20002E236
:0202E30002E334
:0202E40002E432
:0202E50002E530
:0202E60002E62E
:0202E70002E72C
:0202E80002E82A
:0202E90002E928
:0202EA0002EA26
:0202EB0002EB24
:0202EC0002EC22
:0202ED0002ED20
:0202EE0002EE1E
:0202EF0002EF1C
:0202F00002F01A
:0202F10002F118
:0202F20002F216
:0202F30002F314
:0202F40002F412
:0202F50002F510
:0202F60002F60E
:0202F70002F70C
:0202F80002F80A
:0202F90002F908
:0202FA0002FA06
:0202FB0002FB04
:0202FC0002FC02
:0202FD0002FD00
:0202FE0002FEFE
:0202FF0002FFFC
:020300000300F8
:020301000301F6
:020302000302F4
:020303000303F2
:020304000304F0
:020305000305EE
:020306000306EC
:020307000307EA
:020308000308E8
:020309000309E6
:02030A00030AE4
:02030B00030BE2
:02030C00030CE0
:02030D00030DDE
:02030E00030EDC
:02030F00030FDA
:020310000310D8
:020311000311D6
:020312000312D4
:020313000313D2
:020314000314D0
:020315000315CE
:020316000316CC
:020317000317CA
:020318000318C8
:020319000319C6
:02031A00031AC4
:02031B00031BC2
:02031C00031CC0
:02031D00031DBE
:02031E00031EBC
:02031F00031FBA
:020320000320B8
:020321000321B6
:020322000322B4
:020323000323B2
:020324000324B0
:020325000325AE
:020326000326AC
:020327000327AA
:020328000328A8
:020329000329A6
:02032A00032AA4
:02032B00032BA2
:02032C00032CA0
:02032D00032D9E
:02032E00032E9C
:02032F00032F9A
:02033000033098
:02033100033196
:02033200033294
:02033300033392
:02033400033490
:0203350003358E
:0203360003368C
:0203370003378A
:02033800033888
:02033900033986
:02033A00033A84
:02033B00033B82
:02033C00033C80
:02033D00033D7E
:02033E00033E7C
:02033F00033F7A
:02034000034078
:02034100034176
:02034200034274
:02034300034372
:02034400034470
:0203450003456E
:0203460003466C
:0203470003476A
:02034800034868
:02034900034966
:02034A00034A64
:02034B00034B62
:02034C00034C60
:02034D00034D5E
:02034E00034E5C
:02034F00034F5A
:02035000035058
:02035100035156
:02035200035254
:02035300035352
:02035400035450
:0203550003554E
:0203560003564C
:0203570003574A
:02035800035848
:02035900035946
:02035A00035A44
:02035B00035B42
:02035C00035C40
:02035D00035D3E
:02035E00035E3C
:02035F00035F3A
:02036000036038
:02036100036136
:02036200036234
:02036300036332
:02036400036430
:0203650003652E
:0203660003662C
:0203670003672A
:02036800036828
:02036900036926
:02036A00036A24
:02036B00036B22
:02036C00036C20
:02036D00036D1E
:02036E00036E1C
:02036F00036F1A
:02037000037018
:02037100037116
:02037200037214
:02037300037312
:02037400037410
:0203750003750E
:0203760003760C
:0203770003770A
:02037800037808
:02037900037906
:02037A00037A04
:02037B00037B02
:02037C00037C00
:02037D00037DFE
:02037E00037EFC
:02037F00037FFA
:020380000380F8
:020381000381F6
:020382000382F4
:020383000383F2
:020384000384F0
:020385000385EE
:020386000386EC
:020387000387EA
:020388000388E8
:020389000389E6
:02038A00038AE4
:02038B00038BE2
:02038C00038CE0
:02038D00038DDE
:02038E00038EDC
:02038F00038FDA
:020390000390D8
:020391000391D6
:020392000392D4
:020393000393D2
:020394000394D0
:020395000395CE
:020396000396CC
:020397000397CA
:020398000398C8
:020399000399C6
:02039A00039AC4
:02039B00039BC2
:02039C00039CC0
:02039D00039DBE
:02039E00039EBC
:02039F00039FBA
:0203A00003A0B8
:0203A10003A1B6
:0203A20003A2B4
:0203A30003A3B2
:0203A40003A4B0
:0203A50003A5AE
:0203A60003A6AC
:0203A70003A7AA
:0203A80003A8A8
:0203A90003A9A6
:0203AA0003AAA4
:0203AB0003ABA2
:0203AC0003ACA0
:0203AD0003AD9E
:0203AE0003AE9C
:0203AF0003AF9A
:0203B00003B098
:0203B10003B196
:0203B20003B294
:0203B30003B392
:0203B40003B490
:0203B50003B58E
:0203B60003B68C
:0203B70003B78A
:0203B80003B888
:0203B90003B986
:0203BA0003BA84
:0203BB0003BB82
:0203BC0003BC80
:0203BD0003BD7E
:0203BE0003BE7C
:0203BF0003BF7A
:0203C00003C078
:0203C10003C176
:0203C20003C274
:0203C30003C372
:0203C40003C470
:0203C50003C56E
:0203C60003C66C
:0203C70003C76A
:0203C80003C868
:0203C90003C966
:0203CA0003CA64
:0203CB0003CB62
:0203CC0003CC60
:0203CD0003CD5E
:0203CE0003CE5C
:0203CF0003CF5A
:0203D00003D058
:0203D10003D156
:0203D20003D254
:0203D30003D352
:0203D40003D450
:0203D50003D54E
:0203D60003D64C
:0203D70003D74A
:0203D80003D848
:0203D90003D946
:0203DA0003DA44
:0203DB0003DB42
:0203DC0003DC40
:0203DD0003DD3E
:0203DE0003DE3C
:0203DF0003DF3A
:0203E00003E038
:0203E10003E136
:0203E20003E234
:0203E30003E332
:0203E40003E430
:0203E50003E52E
:0203E60003E62C
:0203E70003E72A
:0203E80003E828
:0203E90003E926
:0203EA0003EA24
:0203EB0003EB22
:0203EC0003EC20
:0203ED0003ED1E
:0203EE0003EE1C
:0203EF0003EF1A
:0203F00003F018
:0203F10003F116
:0203F20003F214
:0203F30003F312
:0203F40003F410
:0203F50003F50E
:0203F60003F60C
:0203F70003F70A
:0203F80003F808
:0203F90003F906
:0203FA0003FA04
:0203FB0003FB02
:0203FC0003FC00
:0203FD0003FDFE
:0203FE0003FEFC
:0203FF0003FFFA
:020400000400F6
:020401000401F4
:020402000402F2
:020403000403F0
:020404000404EE
:020405000405EC
:020406000406EA
:020407000407E8
:020408000408E6
:020409000409E4
:02040A00040AE2
:02040B00040BE0
:02040C00040CDE
:02040D00040DDC
:02040E00040EDA
:02040F00040FD8
:020410000410D6
:020411000411D4
:020412000412D2
:020413000413D0
:020414000414CE
:020415000415CC
:020416000416CA
:020417000417C8
:020418000418C6
:020419000419C4
:02041A00041AC2
:02041B00041BC0
:02041C00041CBE
:02041D00041DBC
:02041E00041EBA
:02041F00041FB8
:020420000420B6
:020421000421B4
:020422000422B2
:020423000423B0
:020424000424AE
:020425000425AC
:020426000426AA
:020427000427A8
:020428000428A6
:020429000429A4
:02042A00042AA2
:02042B00042BA0
:02042C00042C9E
:02042D00042D9C
:02042E00042E9A
:02042F00042F98
:02043000043096
:02043100043194
:02043200043292
:02043300043390
:0204340004348E
:0204350004358C
:0204360004368A
:02043700043788
:02043800043886
:02043900043984
:02043A00043A82
:02043B00043B80
:02043C00043C7E
:02043D00043D7C
:02043E00043E7A
:02043F00043F78
:02044000044076
:02044100044174
:02044200044272
:02044300044370
:0204440004446E
:0204450004456C
:0204460004466A
:02044700044768
:02044800044866
:02044900044964
:02044A00044A62
:02044B00044B60
:02044C00044C5E
:02044D00044D5C
:02044E00044E5A
:02044F00044F58
:02045000045056
:02045100045154
:02045200045252
:02045300045350
:0204540004544E
:0204550004554C
:0204560004564A
:02045700045748
:02045800045846
:02045900045944
:02045A00045A42
:02045B00045B40
:02045C00045C3E
:02045D00045D3C
:02045E00045E3A
:02045F00045F38
:02046000046036
:02046100046134
:02046200046232
:02046300046330
:0204640004642E
:0204650004652C
:0204660004662A
:02046700046728
:02046800046826
:02046900046924
:02046A00046A22
:02046B00046B20
:02046C00046C1E
:02046D00046D1C
:02046E00046E1A
:02046F00046F18
:02047000047016
:02047100047114
:02047200047212
:02047300047310
:0204740004740E
:0204750004750C
:0204760004760A
:02047700047708
:02047800047806
:02047900047904
:02047A00047A02
:02047B00047B00
:02047C00047CFE
:02047D00047DFC
:02047E00047EFA
:02047F00047FF8
:020480000480F6
:020481000481F4
:020482000482F2
:020483000483F0
:020484000484EE
:020485000485EC
:020486000486EA
:020487000487E8
:020488000488E6
:020489000489E4
:02048A00048AE2
:02048B00048BE0
:02048C00048CDE
:02048D00048DDC
:02048E00048EDA
:02048F00048FD8
:020490000490D6
:020491000491D4
:020492000492D2
:020493000493D0
:020494000494CE
:020495000495CC
:020496000496CA
:020497000497C8
:020498000498C6
:020499000499C4
:02049A00049AC2
:02049B00049BC0
:02049C00049CBE
:02049D00049DBC
:02049E00049EBA
:02049F00049FB8
:0204A00004A0B6
:0204A10004A1B4
:0204A20004A2B2
:0204A30004A3B0
:0204A40004A4AE
:0204A50004A5AC
:0204A60004A6AA
:0204A70004A7A8
:0204A80004A8A6
:0204A90004A9A4
:0204AA0004AAA2
:0204AB0004ABA0
:0204AC0004AC9E
:0204AD0004AD9C
:0204AE0004AE9A
:0204AF0004AF98
:0204B00004B096
:0204B10004B194
:0204B20004B292
:0204B30004B390
:0204B40004B48E
:0204B50004B58C
:0204B60004B68A
:0204B70004B788
:0204B80004B886
:0204B90004B984
:0204BA0004BA82
:0204BB0004BB80
:0204BC0004BC7E
:0204BD0004BD7C
:0204BE0004BE7A
:0204BF0004BF78
:0204C00004C076
:0204C10004C174
:0204C20004C272
:0204C30004C370
:0204C40004C46E
:0204C50004C56C
:0204C60004C66A
:0204C70004C768
:0204C80004C866
:0204C90004C964
:0204CA0004CA62
:0204CB0004CB60
:0204CC0004CC5E
:0204CD0004CD5C
:0204CE0004CE5A
:0204CF0004CF58
:0204D00004D056
:0204D10004D154
:0204D20004D252
:0204D30004D350
:0204D40004D44E
:0204D50004D54C
:0204D60004D64A
:0204D70004D748
:0204D80004D846
:0204D90004D944
:0204DA0004DA42
:0204DB0004DB40
:0204DC0004DC3E
:0204DD0004DD3C
:0204DE0004DE3A
:0204DF0004DF38
:0204E00004E036
:0204E10004E134
:0204E20004E232
:0204E30004E330
:0204E40004E42E
:0204E50004E52C
:0204E60004E62A
:0204E70004E728
:0204E80004E826
:0204E90004E924
:0204EA0004EA22
:0204EB0004EB20
:0204EC0004EC1E
:0204ED0004ED1C
:0204EE0004EE1A
:0204EF0004EF18
:0204F00004F016
:0204F10004F114
:0204F20004F212
:0204F30004F310
:0204F40004F40E
:0204F50004F50C
:0204F60004F60A
:0204F70004F708
:0204F80004F806
:0204F90004F904
:0204FA0004FA02
:0204FB0004FB00
:0204FC0004FCFE
:0204FD0004FDFC
:0204FE0004FEFA
:0204FF0004FFF8
:020500000500F4
:020501000501F2
:020502000502F0
:020503000503EE
:020504000504EC
:020505000505EA
:020506000506E8
:020507000507E6
:020508000508E4
:020509000509E2
:02050A00050AE0
:02050B00050BDE
:02050C00050CDC
:02050D00050DDA
:02050E00050ED8
:02050F00050FD6
:020510000510D4
:020511000511D2
:020512000512D0
:020513000513CE
:020514000514CC
:020515000515CA
:020516000516C8
:020517000517C6
:020518000518C4
:020519000519C2
:02051A00051AC0
:02051B00051BBE
:02051C00051CBC
:02051D00051DBA
:02051E00051EB8
:02051F00051FB6
:020520000520B4
:020521000521B2
:020522000522B0
:020523000523AE
:020524000524AC
:020525000525AA
:020526000526A8
:020527000527A6
:020528000528A4
:020529000529A2
:02052A00052AA0
:02052B00052B9E
:02052C00052C9C
:02052D00052D9A
:02052E00052E98
:02052F00052F96
:02053000053094
:02053100053192
:02053200053290
:0205330005338E
:0205340005348C
:0205350005358A
:02053600053688
:02053700053786
:02053800053884
:02053900053982
:02053A00053A80
:02053B00053B7E
:02053C00053C7C
:02053D00053D7A
:02053E00053E78
:02053F00053F76
:02054000054074
:02054100054172
:02054200054270
:0205430005436E
:0205440005446C
:0205450005456A
:02054600054668
:02054700054766
:02054800054864
:02054900054962
:02054A00054A60
:02054B00054B5E
:02054C00054C5C
:02054D00054D5A
:02054E00054E58
:02054F00054F56
:02055000055054
:02055100055152
:02055200055250
:0205530005534E
:0205540005544C
:0205550005554A
:02055600055648
:02055700055746
:02055800055844
:02055900055942
:02055A00055A40
:02055B00055B3E
:02055C00055C3C
:02055D00055D3A
:02055E00055E38
:02055F00055F36
:02056000056034
:02056100056132
:02056200056230
:0205630005632E
:0205640005642C
:0205650005652A
:02056600056628
:02056700056726
:02056800056824
:02056900056922
:02056A00056A20
:02056B00056B1E
:02056C00056C1C
:02056D00056D1A
:02056E00056E18
:02056F00056F16
:02057000057014
:02057100057112
:02057200057210
:0205730005730E
:0205740005740C
:0205750005750A
:02057600057608
:02057700057706
:02057800057804
:02057900057902
:02057A00057A00
:02057B00057BFE
:02057C00057CFC
:02057D00057DFA
:02057E00057EF8
:02057F00057FF6
:020580000580F4
:020581000581F2
:020582000582F0
:020583000583EE
:020584000584EC
:020585000585EA
:020586000586E8
:020587000587E6
:020588000588E4
:020589000589E2
:02058A00058AE0
:02058B00058BDE
:02058C00058CDC
:02058D00058DDA
:02058E00058ED8
:02058F00058FD6
:020590000590D4
:020591000591D2
:020592000592D0
:020593000593CE
:020594000594CC
:020595000595CA
:020596000596C8
:020597000597C6
:020598000598C4
:020599000599C2
:02059A00059AC0
:02059B00059BBE
:02059C00059CBC
:02059D00059DBA
:02059E00059EB8
:02059F00059FB6
:0205A00005A0B4
:0205A10005A1B2
:0205A20005A2B0
:0205A30005A3AE
:0205A40005A4AC
:0205A50005A5AA
:0205A60005A6A8
:0205A70005A7A6
:0205A80005A8A4
:0205A90005A9A2
:0205AA0005AAA0
:0205AB0005AB9E
:0205AC0005AC9C
:0205AD0005AD9A
:0205AE0005AE98
:0205AF0005AF96
:0205B00005B094
:0205B10005B192
:0205B20005B290
:0205B30005B38E
:0205B40005B48C
:0205B50005B58A
:0205B60005B688
:0205B70005B786
:0205B80005B884
:0205B90005B982
:0205BA0005BA80
:0205BB0005BB7E
:0205BC0005BC7C
:0205BD0005BD7A
:0205BE0005BE78
:0205BF0005BF76
:0205C00005C074
:0205C10005C172
:0205C20005C270
:0205C30005C36E
:0205C40005C46C
:0205C50005C56A
:0205C60005C668
:0205C70005C766
:0205C80005C864
:0205C90005C962
:0205CA0005CA60
:0205CB0005CB5E
:0205CC0005CC5C
:0205CD0005CD5A
:0205CE0005CE58
:0205CF0005CF56
:0205D00005D054
:0205D10005D152
:0205D20005D250
:0205D30005D34E
:0205D40005D44C
:0205D50005D54A
:0205D60005D648
:0205D70005D746
:0205D80005D844
:0205D90005D942
:0205DA0005DA40
:0205DB0005DB3E
:0205DC0005DC3C
:0205DD0005DD3A
:0205DE0005DE38
:0205DF0005DF36
:0205E00005E034
:0205E10005E132
:0205E20005E230
:0205E30005E32E
:0205E40005E42C
:0205E50005E52A
:0205E60005E628
:0205E70005E726
:0205E80005E824
:0205E90005E922
:0205EA0005EA20
:0205EB0005EB1E
:0205EC0005EC1C
:0205ED0005ED1A
:0205EE0005EE18
:0205EF0005EF16
:0205F00005F014
:0205F10005F112
:0205F20005F210
:0205F30005F30E
:0205F40005F40C
:0205F50005F50A
:0205F60005F608
:0205F70005F706
:0205F80005F804
:0205F90005F902
:0205FA0005FA00
:0205FB0005FBFE
:0205FC0005FCFC
:0205FD0005FDFA
:0205FE0005FEF8
:0205FF0005FFF6
:020600000600F2
:020601000601F0
:020602000602EE
:020603000603EC
:020604000604EA
:020605000605E8
:020606000606E6
:020607000607E4
:020608000608E2
:020609000609E0
:02060A00060ADE
:02060B00060BDC
:02060C00060CDA
:02060D00060DD8
:02060E00060ED6
:02060F00060FD4
:020610000610D2
:020611000611D0
:020612000612CE
:020613000613CC
:020614000614CA
:020615000615C8
:020616000616C6
:020617000617C4
:020618000618C2
:020619000619C0
:02061A00061ABE
:02061B00061BBC
:02061C00061CBA
:02061D00061DB8
:02061E00061EB6
:02061F00061FB4
:020620000620B2
:020621000621B0
:020622000622AE
:020623000623AC
:020624000624AA
:020625000625A8
:020626000626A6
:020627000627A4
:020628000628A2
:020629000629A0
:02062A00062A9E
:02062B00062B9C
:02062C00062C9A
:02062D00062D98
:02062E00062E96
:02062F00062F94
:02063000063092
:02063100063190
:0206320006328E
:0206330006338C
:0206340006348A
:02063500063588
:02063600063686
:02063700063784
:02063800063882
:02063900063980
:02063A00063A7E
:02063B00063B7C
:02063C00063C7A
:02063D00063D78
:02063E00063E76
:02063F00063F74
:02064000064072
:02064100064170
:0206420006426E
:0206430006436C
:0206440006446A
:02064500064568
:02064600064666
:02064700064764
:02064800064862
:02064900064960
:02064A00064A5E
:02064B00064B5C
:02064C00064C5A
:02064D00064D58
:02064E00064E56
:02064F00064F54
:02065000065052
:02065100065150
:0206520006524E
:0206530006534C
:0206540006544A
:02065500065548
:02065600065646
:02065700065744
:02065800065842
:02065900065940
:02065A00065A3E
:02065B00065B3C
:02065C00065C3A
:02065D00065D38
:02065E00065E36
:02065F00065F34
:02066000066032
:02066100066130
:0206620006622E
:0206630006632C
:0206640006642A
:02066500066528
:02066600066626
:02066700066724
:02066800066822
:02066900066920
:02066A00066A1E
:02066B00066B1C
:02066C00066C1A
:02066D00066D18
:02066E00066E16
:02066F00066F14
:02067000067012
:02067100067110
:0206720006720E
:0206730006730C
:0206740006740A
:02067500067508
:02067600067606
:02067700067704
:02067800067802
:02067900067900
:02067A00067AFE
:02067B00067BFC
:02067C00067CFA
:02067D00067DF8
:02067E00067EF6
:02067F00067FF4
:020680000680F2
:020681000681F0
:020682000682EE
:020683000683EC
:020684000684EA
:020685000685E8
:020686000686E6
:020687000687E4
:020688000688E2
:020689000689E0
:02068A00068ADE
:02068B00068BDC
:02068C00068CDA
:02068D00068DD8
:02068E00068ED6
:02068F00068FD4
:020690000690D2
:020691000691D0
:020692000692CE
:020693000693CC
:020694000694CA
:020695000695C8
:020696000696C6
:020697000697C4
:020698000698C2
:020699000699C0
:02069A00069ABE
:02069B00069BBC
:02069C00069CBA
:02069D00069DB8
:02069E00069EB6
:02069F00069FB4
:0206A00006A0B2
:0206A10006A1B0
:0206A20006A2AE
:0206A30006A3AC
:0206A40006A4AA
:0206A50006A5A8
:0206A60006A6A6
:0206A70006A7A4
:0206A80006A8A2
:0206A90006A9A0
:0206AA0006AA9E
:0206AB0006AB9C
:0206AC0006AC9A
:0206AD0006AD98
:0206AE0006AE96
:0206AF0006AF94
:0206B00006B092
:0206B10006B190
:0206B20006B28E
:0206B30006B38C
:0206B40006B48A
:0206B50006B588
:0206B60006B686
:0206B70006B784
:0206B80006B882
:0206B90006B980
:0206BA0006BA7E
:0206BB0006BB7C
:0206BC0006BC7A
:0206BD0006BD78
:0206BE0006BE76
:0206BF0006BF74
:0206C00006C072
:0206C10006C170
:0206C20006C26E
:0206C30006C36C
:0206C40006C46A
:0206C50006C568
:0206C60006C666
:0206C70006C764
:0206C80006C862
:0206C90006C960
:0206CA0006CA5E
:0206CB0006CB5C
:0206CC0006CC5A
:0206CD0006CD58
:0206CE0006CE56
:0206CF0006CF54
:0206D00006D052
:0206D10006D150
:0206D20006D24E
:0206D30006D34C
:0206D40006D44A
:0206D50006D548
:0206D60006D646
:0206D70006D744
:0206D80006D842
:0206D90006D940
:0206DA0006DA3E
:0206DB0006DB3C
:0206DC0006DC3A
:0206DD0006DD38
:0206DE0006DE36
:0206DF0006DF34
:0206E00006E032
:0206E10006E130
:0206E20006E22E
:0206E30006E32C
:0206E40006E42A
:0206E50006E528
:0206E60006E626
:0206E70006E724
:0206E80006E822
:0206E90006E920
:0206EA0006EA1E
:0206EB0006EB1C
:0206EC0006EC1A
:0206ED0006ED18
:0206EE0006EE16
:0206EF0006EF14
:0206F00006F012
:0206F10006F110
:0206F20006F20E
:0206F30006F30C
:0206F40006F40A
:0206F50006F508
:0206F60006F606
:0206F70006F704
:0206F80006F802
:0206F90006F900
:0206FA0006FAFE
:0206FB0006FBFC
:0206FC0006FCFA
:0206FD0006FDF8
:0206FE0006FEF6
:0206FF0006FFF4
:020700000700F0
:020701000701EE
:020702000702EC
:020703000703EA
:020704000704E8
:020705000705E6
:020706000706E4
:020707000707E2
:020708000708E0
:020709000709DE
:02070A00070ADC
:02070B00070BDA
:02070C00070CD8
:02070D00070DD6
:02070E00070ED4
:02070F00070FD2
:020710000710D0
:020711000711CE
:020712000712CC
:020713000713CA
:020714000714C8
:020715000715C6
:020716000716C4
:020717000717C2
:020718000718C0
:020719000719BE
:02071A00071ABC
:02071B00071BBA
:02071C00071CB8
:02071D00071DB6
:02071E00071EB4
:02071F00071FB2
:020720000720B0
:020721000721AE
:020722000722AC
:020723000723AA
:020724000724A8
:020725000725A6
:020726000726A4
:020727000727A2
:020728000728A0
:0207290007299E
:02072A00072A9C
:02072B00072B9A
:02072C00072C98
:02072D00072D96
:02072E00072E94
:02072F00072F92
:02073000073090
:0207310007318E
:0207320007328C
:0207330007338A
:02073400073488
:02073500073586
:02073600073684
:02073700073782
:02073800073880
:0207390007397E
:02073A00073A7C
:02073B00073B7A
:02073C00073C78
:02073D00073D76
:02073E00073E74
:02073F00073F72
:02074000074070
:0207410007416E
:0207420007426C
:0207430007436A
:02074400074468
:02074500074566
:02074600074664
:02074700074762
:02074800074860
:0207490007495E
:02074A00074A5C
:02074B00074B5A
:02074C00074C58
:02074D00074D56
:02074E00074E54
:02074F00074F52
:02075000075050
:0207510007514E
:0207520007524C
:0207530007534A
:02075400075448
:02075500075546
:02075600075644
:02075700075742
:02075800075840
:0207590007593E
:02075A00075A3C
:02075B00075B3A
:02075C00075C38
:02075D00075D36
:02075E00075E34
:02075F00075F32
:02076000076030
:0207610007612E
:0207620007622C
:0207630007632A
:02076400076428
:02076500076526
:02076600076624
:02076700076722
:02076800076820
:0207690007691E
:02076A00076A1C
:02076B00076B1A
:02076C00076C18
:02076D00076D16
:02076E00076E14
:02076F00076F12
:02077000077010
:0207710007710E
:0207720007720C
:0207730007730A
:02077400077408
:02077500077506
:02077600077604
:02077700077702
:02077800077800
:020779000779FE
:02077A00077AFC
:02077B00077BFA
:02077C00077CF8
:02077D00077DF6
:02077E00077EF4
:02077F00077FF2
:020780000780F0
:020781000781EE
:020782000782EC
:020783000783EA
:020784000784E8
:020785000785E6
:020786000786E4
:020787000787E2
:020788000788E0
:020789000789DE
:02078A00078ADC
:02078B00078BDA
:02078C00078CD8
:02078D00078DD6
:02078E00078ED4
:02078F00078FD2
:020790000790D0
:020791000791CE
:020792000792CC
:020793000793CA
:020794000794C8
:020795000795C6
:020796000796C4
:020797000797C2
:020798000798C0
:020799000799BE
:02079A00079ABC
:02079B00079BBA
:02079C00079CB8
:02079D00079DB6
:02079E00079EB4
:02079F00079FB2
:0207A00007A0B0
:0207A10007A1AE
:0207A20007A2AC
:0207A30007A3AA
:0207A40007A4A8
:0207A50007A5A6
:0207A60007A6A4
:0207A70007A7A2
:0207A80007A8A0
:0207A90007A99E
:0207AA0007AA9C
:0207AB0007AB9A
:0207AC0007AC98
:0207AD0007AD96
:0207AE0007AE94
:0207AF0007AF92
:0207B00007B090
:0207B10007B18E
:0207B20007B28C
:0207B30007B38A
:0207B40007B488
:0207B50007B586
:0207B60007B684
:0207B70007B782
:0207B80007B880
:0207B90007B97E
:0207BA0007BA7C
:0207BB0007BB7A
:0207BC0007BC78
:0207BD0007BD76
:0207BE0007BE74
:0207BF0007BF72
:0207C00007C070
:0207C10007C16E
:0207C20007C26C
:0207C30007C36A
:0207C40007C468
:0207C50007C566
:0207C60007C664
:0207C70007C762
:0207C80007C860
:0207C90007C95E
:0207CA0007CA5C
:0207CB0007CB5A
:0207CC0007CC58
:0207CD0007CD56
:0207CE0007CE54
:0207CF0007CF52
:0207D00007D050
:0207D10007D14E
:0207D20007D24C
:0207D30007D34A
:0207D40007D448
:0207D50007D546
:0207D60007D644
:0207D70007D742
:0207D80007D840
:0207D90007D93E
:0207DA0007DA3C
:0207DB0007DB3A
:0207DC0007DC38
:0207DD0007DD36
:0207DE0007DE34
:0207DF0007DF32
:0207E00007E030
:0207E10007E12E
:0207E20007E22C
:0207E30007E32A
:0207E40007E428
:0207E50007E526
:0207E60007E624
:0207E70007E722
:0207E80007E820
:0207E90007E91E
:0207EA0007EA1C
:0207EB0007EB1A
:0207EC0007EC18
:0207ED0007ED16
:0207EE0007EE14
:0207EF0007EF12
:0207F00007F010
:0207F10007F10E
:0207F20007F20C
:0207F30007F30A
:0207F40007F408
:0207F50007F506
:0207F60007F604
:0207F70007F702
:0207F80007F800
:0207F90007F9FE
:0207FA0007FAFC
:0207FB0007FBFA
:0207FC0007FCF8
:0207FD0007FDF6
:0207FE0007FEF4
:0207FF0007FFF2
:020800000800EE
:020801000801EC
:020802000802EA
:020803000803E8
:020804000804E6
:020805000805E4
:020806000806E2
:020807000807E0
:020808000808DE
:020809000809DC
:02080A00080ADA
:02080B00080BD8
:02080C00080CD6
:02080D00080DD4
:02080E00080ED2
:02080F00080FD0
:020810000810CE
:020811000811CC
:020812000812CA
:020813000813C8
:020814000814C6
:020815000815C4
:020816000816C2
:020817000817C0
:020818000818BE
:020819000819BC
:02081A00081ABA
:02081B00081BB8
:02081C00081CB6
:02081D00081DB4
:02081E00081EB2
:02081F00081FB0
:020820000820AE
:020821000821AC
:020822000822AA
:020823000823A8
:020824000824A6
:020825000825A4
:020826000826A2
:020827000827A0
:0208280008289E
:0208290008299C
:02082A00082A9A
:02082B00082B98
:02082C00082C96
:02082D00082D94
:02082E00082E92
:02082F00082F90
:0208300008308E
:0208310008318C
:0208320008328A
:02083300083388
:02083400083486
:02083500083584
:02083600083682
:02083700083780
:0208380008387E
:0208390008397C
:02083A00083A7A
:02083B00083B78
:02083C00083C76
:02083D00083D74
:02083E00083E72
:02083F00083F70
:0208400008406E
:0208410008416C
:0208420008426A
:02084300084368
:02084400084466
:02084500084564
:02084600084662
:02084700084760
:0208480008485E
:0208490008495C
:02084A00084A5A
:02084B00084B58
:02084C00084C56
:02084D00084D54
:02084E00084E52
:02084F00084F50
:0208500008504E
:0208510008514C
:0208520008524A
:02085300085348
:02085400085446
:02085500085544
:02085600085642
:02085700085740
:0208580008583E
:0208590008593C
:02085A00085A3A
:02085B00085B38
:02085C00085C36
:02085D00085D34
:02085E00085E32
:02085F00085F30
:0208600008602E
:0208610008612C
:0208620008622A
:02086300086328
:02086400086426
:02086500086524
:02086600086622
:02086700086720
:0208680008681E
:0208690008691C
:02086A00086A1A
:02086B00086B18
:02086C00086C16
:02086D00086D14
:02086E00086E12
:02086F00086F10
:0208700008700E
:0208710008710C
:0208720008720A
:02087300087308
:02087400087406
:02087500087504
:02087600087602
:02087700087700
:020878000878FE
:020879000879FC
:02087A00087AFA
:02087B00087BF8
:02087C00087CF6
:02087D00087DF4
:02087E00087EF2
:02087F00087FF0
:020880000880EE
:020881000881EC
:020882000882EA
:020883000883E8
:020884000884E6
:020885000885E4
:020886000886E2
:020887000887E0
:020888000888DE
:020889000889DC
:02088A00088ADA
:02088B00088BD8
:02088C00088CD6
:02088D00088DD4
:02088E00088ED2
:02088F00088FD0
:020890000890CE
:020891000891CC
:020892000892CA
:020893000893C8
:020894000894C6
:020895000895C4
:020896000896C2
:020897000897C0
:020898000898BE
:020899000899BC
:02089A00089ABA
:02089B00089BB8
:02089C00089CB6
:02089D00089DB4
:02089E00089EB2
:02089F00089FB0
:0208A00008A0AE
:0208A10008A1AC
:0208A20008A2AA
:0208A30008A3A8
:0208A40008A4A6
:0208A50008A5A4
:0208A60008A6A2
:0208A70008A7A0
:0208A80008A89E
:0208A90008A99C
:0208AA0008AA9A
:0208AB0008AB98
:0208AC0008AC96
:0208AD0008AD94
:0208AE0008AE92
:0208AF0008AF90
:0208B00008B08E
:0208B10008B18C
:0208B20008B28A
:0208B30008B388
:0208B40008B486
:0208B50008B584
:0208B60008B682
:0208B70008B780
:0208B80008B87E
:0208B90008B97C
:0208BA0008BA7A
:0208BB0008BB78
:0208BC0008BC76
:0208BD0008BD74
:0208BE0008BE72
:0208BF0008BF70
:0208C00008C06E
:0208C10008C16C
:0208C20008C26A
:0208C30008C368
:0208C40008C466
:0208C50008C564
:0208C60008C662
:0208C70008C760
:0208C80008C85E
:0208C90008C95C
:0208CA0008CA5A
:0208CB0008CB58
:0208CC0008CC56
:0208CD0008CD54
:0208CE0008CE52
:0208CF0008CF50
:0208D00008D04E
:0208D10008D14C
:0208D20008D24A
:0208D30008D348
:0208D40008D446
:0208D50008D544
:0208D60008D642
:0208D70008D740
:0208D80008D83E
:0208D90008D93C
:0208DA0008DA3A
:0208DB0008DB38
:0208DC0008DC36
:0208DD0008DD34
:0208DE0008DE32
:0208DF0008DF30
:0208E00008E02E
:0208E10008E12C
:0208E20008E22A
:0208E30008E328
:0208E40008E426
:0208E50008E524
:0208E60008E622
:0208E70008E720
:0208E80008E81E
:0208E90008E91C
:0208EA0008EA1A
:0208EB0008EB18
:0208EC0008EC16
:0208ED0008ED14
:0208EE0008EE12
:0208EF0008EF10
:0208F00008F00E
:0208F10008F10C
:0208F20008F20A
:0208F30008F308
:0208F40008F406
:0208F50008F504
:0208F60008F602
:0208F70008F700
:0208F80008F8FE
:0208F90008F9FC
:0208FA0008FAFA
:0208FB0008FBF8
:0208FC0008FCF6
:0208FD0008FDF4
:0208FE0008FEF2
:0208FF0008FFF0
:020900000900EC
:020901000901EA
:020902000902E8
:020903000903E6
:020904000904E4
:020905000905E2
:020906000906E0
:020907000907DE
:020908000908DC
:020909000909DA
:02090A00090AD8
:02090B00090BD6
:02090C00090CD4
:02090D00090DD2
:02090E00090ED0
:02090F00090FCE
:020910000910CC
:020911000911CA
:020912000912C8
:020913000913C6
:020914000914C4
:020915000915C2
:020916000916C0
:020917000917BE
:020918000918BC
:020919000919BA
:02091A00091AB8
:02091B00091BB6
:02091C00091CB4
:02091D00091DB2
:02091E00091EB0
:02091F00091FAE
:020920000920AC
:020921000921AA
:020922000922A8
:020923000923A6
:020924000924A4
:020925000925A2
:020926000926A0
:0209270009279E
:0209280009289C
:0209290009299A
:02092A00092A98
:02092B00092B96
:02092C00092C94
:02092D00092D92
:02092E00092E90
:02092F00092F8E
:0209300009308C
:0209310009318A
:02093200093288
:02093300093386
:02093400093484
:02093500093582
:02093600093680
:0209370009377E
:0209380009387C
:0209390009397A
:02093A00093A78
:02093B00093B76
:02093C00093C74
:02093D00093D72
:02093E00093E70
:02093F00093F6E
:0209400009406C
:0209410009416A
:02094200094268
:02094300094366
:02094400094464
:02094500094562
:02094600094660
:0209470009475E
:0209480009485C
:0209490009495A
:02094A00094A58
:02094B00094B56
:02094C00094C54
:02094D00094D52
:02094E00094E50
:02094F00094F4E
:0209500009504C
:0209510009514A
:02095200095248
:02095300095346
:02095400095444
:02095500095542
:02095600095640
:0209570009573E
:0209580009583C
:0209590009593A
:02095A00095A38
:02095B00095B36
:02095C00095C34
:02095D00095D32
:02095E00095E30
:02095F00095F2E
:0209600009602C
:0209610009612A
:02096200096228
:02096300096326
:02096400096424
:02096500096522
:02096600096620
:0209670009671E
:0209680009681C
:0209690009691A
:02096A00096A18
:02096B00096B16
:02096C00096C14
:02096D00096D12
:02096E00096E10
:02096F00096F0E
:0209700009700C
:0209710009710A
:02097200097208
:02097300097306
:02097400097404
:02097500097502
:02097600097600
:020977000977FE
:020978000978FC
:020979000979FA
:02097A00097AF8
:02097B00097BF6
:02097C00097CF4
:02097D00097DF2
:02097E00097EF0
:02097F00097FEE
:020980000980EC
:020981000981EA
:020982000982E8
:020983000983E6
:020984000984E4
:020985000985E2
:020986000986E0
:020987000987DE
:020988000988DC
:020989000989DA
:02098A00098AD8
:02098B00098BD6
:02098C00098CD4
:02098D00098DD2
:02098E00098ED0
:02098F00098FCE
:020990000990CC
:020991000991CA
:020992000992C8
:020993000993C6
:020994000994C4
:020995000995C2
:020996000996C0
:020997000997BE
:020998000998BC
:020999000999BA
:02099A00099AB8
:02099B00099BB6
:02099C00099CB4
:02099D00099DB2
:02099E00099EB0
:02099F00099FAE
:0209A00009A0AC
:0209A10009A1AA
:0209A20009A2A8
:0209A30009A3A6
:0209A40009A4A4
:0209A50009A5A2
:0209A60009A6A0
:0209A70009A79E
:0209A80009A89C
:0209A90009A99A
:0209AA0009AA98
:0209AB0009AB96
:0209AC0009AC94
:0209AD0009AD92
:0209AE0009AE90
:0209AF0009AF8E
:0209B00009B08C
:0209B10009B18A
:0209B20009B288
:0209B30009B386
:0209B40009B484
:0209B50009B582
:0209B60009B680
:0209B70009B77E
:0209B80009B87C
:0209B90009B97A
:0209BA0009BA78
:0209BB0009BB76
:0209BC0009BC74
:0209BD0009BD72
:0209BE0009BE70
:0209BF0009BF6E
:0209C00009C06C
:0209C10009C16A
:0209C20009C268
:0209C30009C366
:0209C40009C464
:0209C50009C562
:0209C60009C660
:0209C70009C75E
:0209C80009C85C
:0209C90009C95A
:0209CA0009CA58
:0209CB0009CB56
:0209CC0009CC54
:0209CD0009CD52
:0209CE0009CE50
:0209CF0009CF4E
:0209D00009D04C
:0209D10009D14A
:0209D20009D248
:0209D30009D346
:0209D40009D444
:0209D50009D542
:0209D60009D640
:0209D70009D73E
:0209D80009D83C
:0209D90009D93A
:0209DA0009DA38
:0209DB0009DB36
:0209DC0009DC34
:0209DD0009DD32
:0209DE0009DE30
:0209DF0009DF2E
:0209E00009E02C
:0209E10009E12A
:0209E20009E228
:0209E30009E326
:0209E40009E424
:0209E50009E522
:0209E60009E620
:0209E70009E71E
:0209E80009E81C
:0209E90009E91A
:0209EA0009EA18
:0209EB0009EB16
:0209EC0009EC14
:0209ED0009ED12
:0209EE0009EE10
:0209EF0009EF0E
:0209F00009F00C
:0209F10009F10A
:0209F20009F208
:0209F30009F306
:0209F40009F404
:0209F50009F502
:0209F60009F600
:0209F70009F7FE
:0209F80009F8FC
:0209F90009F9FA
:0209FA0009FAF8
:0209FB0009FBF6
:0209FC0009FCF4
:0209FD0009FDF2
:0209FE0009FEF0
:0209FF0009FFEE
:020A00000A00EA
:020A01000A01E8
:020A02000A02E6
:020A03000A03E4
:020A04000A04E2
:020A05000A05E0
:020A06000A06DE
:020A07000A07DC
:020A08000A08DA
:020A09000A09D8
:020A0A000A0AD6
:020A0B000A0BD4
:020A0C000A0CD2
:020A0D000A0DD0
:020A0E000A0ECE
:020A0F000A0FCC
:020A10000A10CA
:020A11000A11C8
:020A12000A12C6
:020A13000A13C4
:020A14000A14C2
:020A15000A15C0
:020A16000A16BE
:020A17000A17BC
:020A18000A18BA
:020A19000A19B8
:020A1A000A1AB6
:020A1B000A1BB4
:020A1C000A1CB2
:020A1D000A1DB0
:020A1E000A1EAE
:020A1F000A1FAC
:020A20000A20AA
:020A21000A21A8
:020A22000A22A6
:020A23000A23A4
:020A24000A24A2
:020A25000A25A0
:020A26000A269E
:020A27000A279C
:020A28000A289A
:020A29000A2998
:020A2A000A2A96
:020A2B000A2B94
:020A2C000A2C92
:020A2D000A2D90
:020A2E000A2E8E
:020A2F000A2F8C
:020A30000A308A
:020A31000A3188
:020A32000A3286
:020A33000A3384
:020A34000A3482
:020A35000A3580
:020A36000A367E
:020A37000A377C
:020A38000A387A
:020A39000A3978
:020A3A000A3A76
:020A3B000A3B74
:020A3C000A3C72
:020A3D000A3D70
:020A3E000A3E6E
:020A3F000A3F6C
:020A40000A406A
:020A41000A4168
:020A42000A4266
:020A43000A4364
:020A44000A4462
:020A45000A4560
:020A46000A465E
:020A47000A475C
:020A48000A485A
:020A49000A4958
:020A4A000A4A56
:020A4B000A4B54
:020A4C000A4C52
:020A4D000A4D50
:020A4E000A4E4E
:020A4F000A4F4C
:020A50000A504A
:020A51000A5148
:020A52000A5246
:020A53000A5344
:020A54000A5442
:020A55000A5540
:020A56000A563E
:020A57000A573C
:020A58000A583A
:020A59000A5938
:020A5A000A5A36
:020A5B000A5B34
:020A5C000A5C32
:020A5D000A5D30
:020A5E000A5E2E
:020A5F000A5F2C
:020A60000A602A
:020A61000A6128
:020A62000A6226
:020A63000A6324
:020A64000A6422
:020A65000A6520
:020A66000A661E
:020A67000A671C
:020A68000A681A
:020A69000A6918
:020A6A000A6A16
:020A6B000A6B14
:020A6C000A6C12
:020A6D000A6D10
:020A6E000A6E0E
:020A6F000A6F0C
:020A70000A700A
:020A71000A7108
:020A72000A7206
:020A73000A7304
:020A74000A7402
:020A75000A7500
:020A76000A76FE
:020A77000A77FC
:020A78000A78FA
:020A79000A79F8
:020A7A000A7AF6
:020A7B000A7BF4
:020A7C000A7CF2
:020A7D000A7DF0
:020A7E000A7EEE
:020A7F000A7FEC
:020A80000A80EA
:020A81000A81E8
:020A82000A82E6
:020A83000A83E4
:020A84000A84E2
:020A85000A85E0
:020A86000A86DE
:020A87000A87DC
:020A88000A88DA
:020A89000A89D8
:020A8A000A8AD6
:020A8B000A8BD4
:020A8C000A8CD2
:020A8D000A8DD0
:020A8E000A8ECE
:020A8F000A8FCC
:020A90000A90CA
:020A91000A91C8
:020A92000A92C6
:020A93000A93C4
:020A94000A94C2
:020A95000A95C0
:020A96000A96BE
:020A97000A97BC
:020A98000A98BA
:020A99000A99B8
:020A9A000A9AB6
:020A9B000A9BB4
:020A9C000A9CB2
:020A9D000A9DB0
:020A9E000A9EAE
:020A9F000A9FAC
:020AA0000AA0AA
:020AA1000AA1A8
:020AA2000AA2A6
:020AA3000AA3A4
:020AA4000AA4A2
:020AA5000AA5A0
:020AA6000AA69E
:020AA7000AA79C
:020AA8000AA89A
:020AA9000AA998
:020AAA000AAA96
:020AAB000AAB94
:020AAC000AAC92
:020AAD000AAD90
:020AAE000AAE8E
:020AAF000AAF8C
:020AB0000AB08A
:020AB1000AB188
:020AB2000AB286
:020AB3000AB384
:020AB4000AB482
:020AB5000AB580
:020AB6000AB67E
:020AB7000AB77C
:020AB8000AB87A
:020AB9000AB978
:020ABA000ABA76
:020ABB000ABB74
:020ABC000ABC72
:020ABD000ABD70
:020ABE000ABE6E
:020ABF000ABF6C
:020AC0000AC06A
:020AC1000AC168
:020AC2000AC266
:020AC3000AC364
:020AC4000AC462
:020AC5000AC560
:020AC6000AC65E
:020AC7000AC75C
:020AC8000AC85A
:020AC9000AC958
:020ACA000ACA56
:020ACB000ACB54
:020ACC000ACC52
:020ACD000ACD50
:020ACE000ACE4E
:020ACF000ACF4C
:020AD0000AD04A
:020AD1000AD148
:020AD2000AD246
:020AD3000AD344
:020AD4000AD442
:020AD5000AD540
:020AD6000AD63E
:020AD7000AD73C
:020AD8000AD83A
:020AD9000AD938
:020ADA000ADA36
:020ADB000ADB34
:020ADC000ADC32
:020ADD000ADD30
:020ADE000ADE2E
:020ADF000ADF2C
:020AE0000AE02A
:020AE1000AE128
:020AE2000AE226
:020AE3000AE324
:020AE4000AE422
:020AE5000AE520
:020AE6000AE61E
:020AE7000AE71C
:020AE8000AE81A
:020AE9000AE918
:020AEA000AEA16
:020AEB000AEB14
:020AEC000AEC12
:020AED000AED10
:020AEE000AEE0E
:020AEF000AEF0C
:020AF0000AF00A
:020AF1000AF108
:020AF2000AF206
:020AF3000AF304
:020AF4000AF402
:020AF5000AF500
:020AF6000AF6FE
:020AF7000AF7FC
:020AF8000AF8FA
:020AF9000AF9F8
:020AFA000AFAF6
:020AFB000AFBF4
:020AFC000AFCF2
:020AFD000AFDF0
:020AFE000AFEEE
:020AFF000AFFEC
:020B00000B00E8
:020B01000B01E6
:020B02000B02E4
:020B03000B03E2
:020B04000B04E0
:020B05000B05DE
:020B06000B06DC
:020B07000B07DA
:020B08000B08D8
:020B09000B09D6
:020B0A000B0AD4
:020B0B000B0BD2
:020B0C000B0CD0
:020B0D000B0DCE
:020B0E000B0ECC
:020B0F000B0FCA
:020B10000B10C8
:020B11000B11C6
:020B12000B12C4
:020B13000B13C2
:020B14000B14C0
:020B15000B15BE
:020B16000B16BC
:020B17000B17BA
:020B18000B18B8
:020B19000B19B6
:020B1A000B1AB4
:020B1B000B1BB2
:020B1C000B1CB0
:020B1D000B1DAE
:020B1E000B1EAC
:020B1F000B1FAA
:020B20000B20A8
:020B21000B21A6
:020B22000B22A4
:020B23000B23A2
:020B24000B24A0
:020B25000B259E
:020B26000B269C
:020B27000B279A
:020B28000B2898
:020B29000B2996
:020B2A000B2A94
:020B2B000B2B92
:020B2C000B2C90
:020B2D000B2D8E
:020B2E000B2E8C
:020B2F000B2F8A
:020B30000B3088
:020B31000B3186
:020B32000B3284
:020B33000B3382
:020B34000B3480
:020B35000B357E
:020B36000B367C
:020B37000B377A
:020B38000B3878
:020B39000B3976
:020B3A000B3A74
:020B3B000B3B72
:020B3C000B3C70
:020B3D000B3D6E
:020B3E000B3E6C
:020B3F000B3F6A
:020B40000B4068
:020B41000B4166
:020B42000B4264
:020B43000B4362
:020B44000B4460
:020B45000B455E
:020B46000B465C
:020B47000B475A
:020B48000B4858
:020B49000B4956
:020B4A000B4A54
:020B4B000B4B52
:020B4C000B4C50
:020B4D000B4D4E
:020B4E000B4E4C
:020B4F000B4F4A
:020B50000B5048
:020B51000B5146
:020B52000B5244
:020B53000B5342
:020B54000B5440
:020B55000B553E
:020B56000B563C
:020B57000B573A
:020B58000B5838
:020B59000B5936
:020B5A000B5A34
:020B5B000B5B32
:020B5C000B5C30
:020B5D000B5D2E
:020B5E000B5E2C
:020B5F000B5F2A
:020B60000B6028
:020B61000B6126
:020B62000B6224
:020B63000B6322
:020B64000B6420
:020B65000B651E
:020B66000B661C
:020B67000B671A
:020B68000B6818
:020B69000B6916
:020B6A000B6A14
:020B6B000B6B12
:020B6C000B6C10
:020B6D000B6D0E
:020B6E000B6E0C
:020B6F000B6F0A
:020B70000B7008
:020B71000B7106
:020B72000B7204
:020B73000B7302
:020B74000B7400
:020B75000B75FE
:020B76000B76FC
:020B77000B77FA
:020B78000B78F8
:020B79000B79F6
:020B7A000B7AF4
:020B7B000B7BF2
:020B7C000B7CF0
:020B7D000B7DEE
:020B7E000B7EEC
:020B7F000B7FEA
:020B80000B80E8
:020B81000B81E6
:020B82000B82E4
:020B83000B83E2
:020B84000B84E0
:020B85000B85DE
:020B86000B86DC
:020B87000B87DA
:020B88000B88D8
:020B89000B89D6
:020B8A000B8AD4
:020B8B000B8BD2
:020B8C000B8CD0
:020B8D000B8DCE
:020B8E000B8ECC
:020B8F000B8FCA
:020B90000B90C8
:020B91000B91C6
:020B92000B92C4
:020B93000B93C2
:020B94000B94C0
:020B95000B95BE
:020B96000B96BC
:020B97000B97BA
:020B98000B98B8
:020B99000B99B6
:020B9A000B9AB4
:020B9B000B9BB2
:020B9C000B9CB0
:020B9D000B9DAE
:020B9E000B9EAC
:020B9F000B9FAA
:020BA0000BA0A8
:020BA1000BA1A6
:020BA2000BA2A4
:020BA3000BA3A2
:020BA4000BA4A0
:020BA5000BA59E
:020BA6000BA69C
:020BA7000BA79A
:020BA8000BA898
:020BA9000BA996
:020BAA000BAA94
:020BAB000BAB92
:020BAC000BAC90
:020BAD000BAD8E
:020BAE000BAE8C
:020BAF000BAF8A
:020BB0000BB088
:020BB1000BB186
:020BB2000BB284
:020BB3000BB382
:020BB4000BB480
:020BB5000BB57E
:020BB6000BB67C
:020BB7000BB77A
:020BB8000BB878
:020BB9000BB976
:020BBA000BBA74
:020BBB000BBB72
:020BBC000BBC70
:020BBD000BBD6E
:020BBE000BBE6C
:020BBF000BBF6A
:020BC0000BC068
:020BC1000BC166
:020BC2000BC264
:020BC3000BC362
:020BC4000BC460
:020BC5000BC55E
:020BC6000BC65C
:020BC7000BC75A
:020BC8000BC858
:020BC9000BC956
:020BCA000BCA54
:020BCB000BCB52
:020BCC000BCC50
:020BCD000BCD4E
:020BCE000BCE4C
:020BCF000BCF4A
:020BD0000BD048
:020BD1000BD146
:020BD2000BD244
:020BD3000BD342
:020BD4000BD440
:020BD5000BD53E
:020BD6000BD63C
:020BD7000BD73A
:020BD8000BD838
:020BD9000BD936
:020BDA000BDA34
:020BDB000BDB32
:020BDC000BDC30
:020BDD000BDD2E
:020BDE000BDE2C
:020BDF000BDF2A
:020BE0000BE028
:020BE1000BE126
:020BE2000BE224
:020BE3000BE322
:020BE4000BE420
:020BE5000BE51E
:020BE6000BE61C
:020BE7000BE71A
:020BE8000BE818
:020BE9000BE916
:020BEA000BEA14
:020BEB000BEB12
:020BEC000BEC10
:020BED000BED0E
:020BEE000BEE0C
:020BEF000BEF0A
:020BF0000BF008
:020BF1000BF106
:020BF2000BF204
:020BF3000BF302
:020BF4000BF400
:020BF5000BF5FE
:020BF6000BF6FC
:020BF7000BF7FA
:020BF8000BF8F8
:020BF9000BF9F6
:020BFA000BFAF4
:020BFB000BFBF2
:020BFC000BFCF0
:020BFD000BFDEE
:020BFE000BFEEC
:020BFF000BFFEA
:020C00000C00E6
:020C01000C01E4
:020C02000C02E2
:020C03000C03E0
:020C04000C04DE
:020C05000C05DC
:020C06000C06DA
:020C07000C07D8
:020C08000C08D6
:020C09000C09D4
:020C0A000C0AD2
:020C0B000C0BD0
:020C0C000C0CCE
:020C0D000C0DCC
:020C0E000C0ECA
:020C0F000C0FC8
:020C10000C10C6
:020C11000C11C4
:020C12000C12C2
:020C13000C13C0
:020C14000C14BE
:020C15000C15BC
:020C16000C16BA
:020C17000C17B8
:020C18000C18B6
:020C19000C19B4
:020C1A000C1AB2
:020C1B000C1BB0
:020C1C000C1CAE
:020C1D000C1DAC
:020C1E000C1EAA
:020C1F000C1FA8
:020C20000C20A6
:020C21000C21A4
:020C22000C22A2
:020C23000C23A0
:020C24000C249E
:020C25000C259C
:020C26000C269A
:020C27000C2798
:020C28000C2896
:020C29000C2994
:020C2A000C2A92
:020C2B000C2B90
:020C2C000C2C8E
:020C2D000C2D8C
:020C2E000C2E8A
:020C2F000C2F88
:020C30000C3086
:020C31000C3184
:020C32000C3282
:020C33000C3380
:020C34000C347E
:020C35000C357C
:020C36000C367A
:020C37000C3778
:020C38000C3876
:020C39000C3974
:020C3A000C3A72
:020C3B000C3B70
:020C3C000C3C6E
:020C3D000C3D6C
:020C3E000C3E6A
:020C3F000C3F68
:020C40000C4066
:020C41000C4164
:020C42000C4262
:020C43000C4360
:020C44000C445E
:020C45000C455C
:020C46000C465A
:020C47000C4758
:020C48000C4856
:020C49000C4954
:020C4A000C4A52
:020C4B000C4B50
:020C4C000C4C4E
:020C4D000C4D4C
:020C4E000C4E4A
:020C4F000C4F48
:020C50000C5046
:020C51000C5144
:020C52000C5242
:020C53000C5340
:020C54000C543E
:020C55000C553C
:020C56000C563A
:020C57000C5738
:020C58000C5836
:020C59000C5934
:020C5A000C5A32
:020C5B000C5B30
:020C5C000C5C2E
:020C5D000C5D2C
:020C5E000C5E2A
:020C5F000C5F28
:020C60000C6026
:020C61000C6124
:020C62000C6222
:020C63000C6320
:020C64000C641E
:020C65000C651C
:020C66000C661A
:020C67000C6718
:020C68000C6816
:020C69000C6914
:020C6A000C6A12
:020C6B000C6B10
:020C6C000C6C0E
:020C6D000C6D0C
:020C6E000C6E0A
:020C6F000C6F08
:020C70000C7006
:020C71000C7104
:020C72000C7202
:020C73000C7300
:020C74000C74FE
:020C75000C75FC
:020C76000C76FA
:020C77000C77F8
:020C78000C78F6
:020C79000C79F4
:020C7A000C7AF2
:020C7B000C7BF0
:020C7C000C7CEE
:020C7D000C7DEC
:020C7E000C7EEA
:020C7F000C7FE8
:020C80000C80E6
:020C81000C81E4
:020C82000C82E2
:020C83000C83E0
:020C84000C84DE
:020C85000C85DC
:020C86000C86DA
:020C87000C87D8
:020C88000C88D6
:020C89000C89D4
:020C8A000C8AD2
:020C8B000C8BD0
:020C8C000C8CCE
:020C8D000C8DCC
:020C8E000C8ECA
:020C8F000C8FC8
:020C90000C90C6
:020C91000C91C4
:020C92000C92C2
:020C93000C93C0
:020C94000C94BE
:020C95000C95BC
:020C96000C96BA
:020C97000C97B8
:020C98000C98B6
:020C99000C99B4
:020C9A000C9AB2
:020C9B000C9BB0
:020C9C000C9CAE
:020C9D000C9DAC
:020C9E000C9EAA
:020C9F000C9FA8
:020CA0000CA0A6
:020CA1000CA1A4
:020CA2000CA2A2
:020CA3000CA3A0
:020CA4000CA49E
:020CA5000CA59C
:020CA6000CA69A
:020CA7000CA798
:020CA8000CA896
:020CA9000CA994
:020CAA000CAA92
:020CAB000CAB90
:020CAC000CAC8E
:020CAD000CAD8C
:020CAE000CAE8A
:020CAF000CAF88
:020CB0000CB086
:020CB1000CB184
:020CB2000CB282
:020CB3000CB380
:020CB4000CB47E
:020CB5000CB57C
:020CB6000CB67A
:020CB7000CB778
:020CB8000CB876
:020CB9000CB974
:020CBA000CBA72
:020CBB000CBB70
:020CBC000CBC6E
:020CBD000CBD6C
:020CBE000CBE6A
:020CBF000CBF68
:020CC0000CC066
:020CC1000CC164
:020CC2000CC262
:020CC3000CC360
:020CC4000CC45E
:020CC5000CC55C
:020CC6000CC65A
:020CC7000CC758
:020CC8000CC856
:020CC9000CC954
:020CCA000CCA52
:020CCB000CCB50
:020CCC000CCC4E
:020CCD000CCD4C
:020CCE000CCE4A
:020CCF000CCF48
:020CD0000CD046
:020CD1000CD144
:020CD2000CD242
:020CD3000CD340
:020CD4000CD43E
:020CD5000CD53C
:020CD6000CD63A
:020CD7000CD738
:020CD8000CD836
:020CD9000CD934
:020CDA000CDA32
:020CDB000CDB30
:020CDC000CDC2E
:020CDD000CDD2C
:020CDE000CDE2A
:020CDF000CDF28
:020CE0000CE026
:020CE1000CE124
:020CE2000CE222
:020CE3000CE320
:020CE4000CE41E
:020CE5000CE51C
:020CE6000CE61A
:020CE7000CE718
:020CE8000CE816
:020CE9000CE914
:020CEA000CEA12
:020CEB000CEB10
:020CEC000CEC0E
:020CED000CED0C
:020CEE000CEE0A
:020CEF000CEF08
:020CF0000CF006
:020CF1000CF104
:020CF2000CF202
:020CF3000CF300
:020CF4000CF4FE
:020CF5000CF5FC
:020CF6000CF6FA
:020CF7000CF7F8
:020CF8000CF8F6
:020CF9000CF9F4
:020CFA000CFAF2
:020CFB000CFBF0
:020CFC000CFCEE
:020CFD000CFDEC
:020CFE000CFEEA
:020CFF000CFFE8
:020D00000D00E4
:020D01000D01E2
:020D02000D02E0
:020D03000D03DE
:020D04000D04DC
:020D05000D05DA
:020D06000D06D8
:020D07000D07D6
:020D08000D08D4
:020D09000D09D2
:020D0A000D0AD0
:020D0B000D0BCE
:020D0C000D0CCC
:020D0D000D0DCA
:020D0E000D0EC8
:020D0F000D0FC6
:020D10000D10C4
:020D11000D11C2
:020D12000D12C0
:020D13000D13BE
:020D14000D14BC
:020D15000D15BA
:020D16000D16B8
:020D17000D17B6
:020D18000D18B4
:020D19000D19B2
:020D1A000D1AB0
:020D1B000D1BAE
:020D1C000D1CAC
:020D1D000D1DAA
:020D1E000D1EA8
:020D1F000D1FA6
:020D20000D20A4
:020D21000D21A2
:020D22000D22A0
:020D23000D239E
:020D24000D249C
:020D25000D259A
:020D26000D2698
:020D27000D2796
:020D28000D2894
:020D29000D2992
:020D2A000D2A90
:020D2B000D2B8E
:020D2C000D2C8C
:020D2D000D2D8A
:020D2E000D2E88
:020D2F000D2F86
:020D30000D3084
:020D31000D3182
:020D32000D3280
:020D33000D337E
:020D34000D347C
:020D35000D357A
:020D36000D3678
:020D37000D3776
:020D38000D3874
:020D39000D3972
:020D3A000D3A70
:020D3B000D3B6E
:020D3C000D3C6C
:020D3D000D3D6A
:020D3E000D3E68
:020D3F000D3F66
:020D40000D4064
:020D41000D4162
:020D42000D4260
:020D43000D435E
:020D44000D445C
:020D45000D455A
:020D46000D4658
:020D47000D4756
:020D48000D4854
:020D49000D4952
:020D4A000D4A50
:020D4B000D4B4E
:020D4C000D4C4C
:020D4D000D4D4A
:020D4E000D4E48
:020D4F000D4F46
:020D50000D5044
:020D51000D5142
:020D52000D5240
:020D53000D533E
:020D54000D543C
:020D55000D553A
:020D56000D5638
:020D57000D5736
:020D58000D5834
:020D59000D5932
:020D5A000D5A30
:020D5B000D5B2E
:020D5C000D5C2C
:020D5D000D5D2A
:020D5E000D5E28
:020D5F000D5F26
:020D60000D6024
:020D61000D6122
:020D62000D6220
:020D63000D631E
:020D64000D641C
:020D65000D651A
:020D66000D6618
:020D67000D6716
:020D68000D6814
:020D69000D6912
:020D6A000D6A10
:020D6B000D6B0E
:020D6C000D6C0C
:020D6D000D6D0A
:020D6E000D6E08
:020D6F000D6F06
:020D70000D7004
:020D71000D7102
:020D72000D7200
:020D73000D73FE
:020D74000D74FC
:020D75000D75FA
:020D76000D76F8
:020D77000D77F6
:020D78000D78F4
:020D79000D79F2
:020D7A000D7AF0
:020D7B000D7BEE
:020D7C000D7CEC
:020D7D000D7DEA
:020D7E000D7EE8
:020D7F000D7FE6
:020D80000D80E4
:020D81000D81E2
:020D82000D82E0
:020D83000D83DE
:020D84000D84DC
:020D85000D85DA
:020D86000D86D8
:020D87000D87D6
:020D88000D88D4
:020D89000D89D2
:020D8A000D8AD0
:020D8B000D8BCE
:020D8C000D8CCC
:020D8D000D8DCA
:020D8E000D8EC8
:020D8F000D8FC6
:020D90000D90C4
:020D91000D91C2
:020D92000D92C0
:020D93000D93BE
:020D94000D94BC
:020D95000D95BA
:020D96000D96B8
:020D97000D97B6
:020D98000D98B4
:020D99000D99B2
:020D9A000D9AB0
:020D9B000D9BAE
:020D9C000D9CAC
:020D9D000D9DAA
:020D9E000D9EA8
:020D9F000D9FA6
:020DA0000DA0A4
:020DA1000DA1A2
:020DA2000DA2A0
:020DA3000DA39E
:020DA4000DA49C
:020DA5000DA59A
:020DA6000DA698
:020DA7000DA796
:020DA8000DA894
:020DA9000DA992
:020DAA000DAA90
:020DAB000DAB8E
:020DAC000DAC8C
:020DAD000DAD8A
:020DAE000DAE88
:020DAF000DAF86
:020DB0000DB084
:020DB1000DB182
:020DB2000DB280
:020DB3000DB37E
:020DB4000DB47C
:020DB5000DB57A
:020DB6000DB678
:020DB7000DB776
:020DB8000DB874
:020DB9000DB972
:020DBA000DBA70
:020DBB000DBB6E
:020DBC000DBC6C
:020DBD000DBD6A
:020DBE000DBE68
:020DBF000DBF66
:020DC0000DC064
:020DC1000DC162
:020DC2000DC260
:020DC3000DC35E
:020DC4000DC45C
:020DC5000DC55A
:020DC6000DC658
:020DC7000DC756
:020DC8000DC854
:020DC9000DC952
:020DCA000DCA50
:020DCB000DCB4E
:020DCC000DCC4C
:020DCD000DCD4A
:020DCE000DCE48
:020DCF000DCF46
:020DD0000DD044
:020DD1000DD142
:020DD2000DD240
:020DD3000DD33E
:020DD4000DD43C
:020DD5000DD53A
:020DD6000DD638
:020DD7000DD736
:020DD8000DD834
:020DD9000DD932
:020DDA000DDA30
:020DDB000DDB2E
:020DDC000DDC2C
:020DDD000DDD2A
:020DDE000DDE28
:020DDF000DDF26
:020DE0000DE024
:020DE1000DE122
:020DE2000DE220
:020DE3000DE31E
:020DE4000DE41C
:020DE5000DE51A
:020DE6000DE618
:020DE7000DE716
:020DE8000DE814
:020DE9000DE912
:020DEA000DEA10
:020DEB000DEB0E
:020DEC000DEC0C
:020DED000DED0A
:020DEE000DEE08
:020DEF000DEF06
:020DF0000DF004
:020DF1000DF102
:020DF2000DF200
:020DF3000DF3FE
:020DF4000DF4FC
:020DF5000DF5FA
:020DF6000DF6F8
:020DF7000DF7F6
:020DF8000DF8F4
:020DF9000DF9F2
:020DFA000DFAF0
:020DFB000DFBEE
:020DFC000DFCEC
:020DFD000DFDEA
:020DFE000DFEE8
:020DFF000DFFE6
:020E00000E00E2
:020E01000E01E0
:020E02000E02DE
:020E03000E03DC
:020E04000E04DA
:020E05000E05D8
:020E06000E06D6
:020E07000E07D4
:020E08000E08D2
:020E09000E09D0
:020E0A000E0ACE
:020E0B000E0BCC
:020E0C000E0CCA
:020E0D000E0DC8
:020E0E000E0EC6
:020E0F000E0FC4
:020E10000E10C2
:020E11000E11C0
:020E12000E12BE
:020E13000E13BC
:020E14000E14BA
:020E15000E15B8
:020E16000E16B6
:020E17000E17B4
:020E18000E18B2
:020E19000E19B0
:020E1A000E1AAE
:020E1B000E1BAC
:020E1C000E1CAA
:020E1D000E1DA8
:020E1E000E1EA6
:020E1F000E1FA4
:020E20000E20A2
:020E21000E21A0
:020E22000E229E
:020E23000E239C
:020E24000E249A
:020E25000E2598
:020E26000E2696
:020E27000E2794
:020E28000E2892
:020E29000E2990
:020E2A000E2A8E
:020E2B000E2B8C
:020E2C000E2C8A
:020E2D000E2D88
:020E2E000E2E86
:020E2F000E2F84
:020E30000E3082
:020E31000E3180
:020E32000E327E
:020E33000E337C
:020E34000E347A
:020E35000E3578
:020E36000E3676
:020E37000E3774
:020E38000E3872
:020E39000E3970
:020E3A000E3A6E
:020E3B000E3B6C
:020E3C000E3C6A
:020E3D000E3D68
:020E3E000E3E66
:020E3F000E3F64
:020E40000E4062
:020E41000E4160
:020E42000E425E
:020E43000E435C
:020E44000E445A
:020E45000E4558
:020E46000E4656
:020E47000E4754
:020E48000E4852
:020E49000E4950
:020E4A000E4A4E
:020E4B000E4B4C
:020E4C000E4C4A
:020E4D000E4D48
:020E4E000E4E46
:020E4F000E4F44
:020E50000E5042
:020E51000E5140
:020E52000E523E
:020E53000E533C
:020E54000E543A
:020E55000E5538
:020E56000E5636
:020E57000E5734
:020E58000E5832
:020E59000E5930
:020E5A000E5A2E
:020E5B000E5B2C
:020E5C000E5C2A
:020E5D000E5D28
:020E5E000E5E26
:020E5F000E5F24
:020E60000E6022
:020E61000E6120
:020E62000E621E
:020E63000E631C
:020E64000E641A
:020E65000E6518
:020E66000E6616
:020E67000E6714
:020E68000E6812
:020E69000E6910
:020E6A000E6A0E
:020E6B000E6B0C
:020E6C000E6C0A
:020E6D000E6D08
:020E6E000E6E06
:020E6F000E6F04
:020E70000E7002
:020E71000E7100
:020E72000E72FE
:020E73000E73FC
:020E74000E74FA
:020E75000E75F8
:020E76000E76F6
:020E77000E77F4
:020E78000E78F2
:020E79000E79F0
:020E7A000E7AEE
:020E7B000E7BEC
:020E7C000E7CEA
:020E7D000E7DE8
:020E7E000E7EE6
:020E7F000E7FE4
:020E80000E80E2
:020E81000E81E0
:020E82000E82DE
:020E83000E83DC
:020E84000E84DA
:020E85000E85D8
:020E86000E86D6
:020E87000E87D4
:020E88000E88D2
:020E89000E89D0
:020E8A000E8ACE
:020E8B000E8BCC
:020E8C000E8CCA
:020E8D000E8DC8
:020E8E000E8EC6
:020E8F000E8FC4
:020E90000E90C2
:020E91000E91C0
:020E92000E92BE
:020E93000E93BC
:020E94000E94BA
:020E95000E95B8
:020E96000E96B6
:020E97000E97B4
:020E98000E98B2
:020E99000E99B0
:020E9A000E9AAE
:020E9B000E9BAC
:020E9C000E9CAA
:020E9D000E9DA8
:020E9E000E9EA6
:020E9F000E9FA4
:020EA0000EA0A2
:020EA1000EA1A0
:020EA2000EA29E
:020EA3000EA39C
:020EA4000EA49A
:020EA5000EA598
:020EA6000EA696
:020EA7000EA794
:020EA8000EA892
:020EA9000EA990
:020EAA000EAA8E
:020EAB000EAB8C
:020EAC000EAC8A
:020EAD000EAD88
:020EAE000EAE86
:020EAF000EAF84
:020EB0000EB082
:020EB1000EB180
:020EB2000EB27E
:020EB3000EB37C
:020EB4000EB47A
:020EB5000EB578
:020EB6000EB676
:020EB7000EB774
:020EB8000EB872
:020EB9000EB970
:020EBA000EBA6E
:020EBB000EBB6C
:020EBC000EBC6A
:020EBD000EBD68
:020EBE000EBE66
:020EBF000EBF64
:020EC0000EC062
:020EC1000EC160
:020EC2000EC25E
:020EC3000EC35C
:020EC4000EC45A
:020EC5000EC558
:020EC6000EC656
:020EC7000EC754
:020EC8000EC852
:020EC9000EC950
:020ECA000ECA4E
:020ECB000ECB4C
:020ECC000ECC4A
:020ECD000ECD48
:020ECE000ECE46
:020ECF000ECF44
:020ED0000ED042
:020ED1000ED140
:020ED2000ED23E
:020ED3000ED33C
:020ED4000ED43A
:020ED5000ED538
:020ED6000ED636
:020ED7000ED734
:020ED8000ED832
:020ED9000ED930
:020EDA000EDA2E
:020EDB000EDB2C
:020EDC000EDC2A
:020EDD000EDD28
:020EDE000EDE26
:020EDF000EDF24
:020EE0000EE022
:020EE1000EE120
:020EE2000EE21E
:020EE3000EE31C
:020EE4000EE41A
:020EE5000EE518
:020EE6000EE616
:020EE7000EE714
:020EE8000EE812
:020EE9000EE910
:020EEA000EEA0E
:020EEB000EEB0C
:020EEC000EEC0A
:020EED000EED08
:020EEE000EEE06
:020EEF000EEF04
:020EF0000EF002
:020EF1000EF100
:020EF2000EF2FE
:020EF3000EF3FC
:020EF4000EF4FA
:020EF5000EF5F8
:020EF6000EF6F6
:020EF7000EF7F4
:020EF8000EF8F2
:020EF9000EF9F0
:020EFA000EFAEE
:020EFB000EFBEC
:020EFC000EFCEA
:020EFD000EFDE8
:020EFE000EFEE6
:020EFF000EFFE4
:020F00000F00E0
:020F01000F01DE
:020F02000F02DC
:020F03000F03DA
:020F04000F04D8
:020F05000F05D6
:020F06000F06D4
:020F07000F07D2
:020F08000F08D0
:020F09000F09CE
:020F0A000F0ACC
:020F0B000F0BCA
:020F0C000F0CC8
:020F0D000F0DC6
:020F0E000F0EC4
:020F0F000F0FC2
:020F10000F10C0
:020F11000F11BE
:020F12000F12BC
:020F13000F13BA
:020F14000F14B8
:020F15000F15B6
:020F16000F16B4
:020F17000F17B2
:020F18000F18B0
:020F19000F19AE
:020F1A000F1AAC
:020F1B000F1BAA
:020F1C000F1CA8
:020F1D000F1DA6
:020F1E000F1EA4
:020F1F000F1FA2
:020F20000F20A0
:020F21000F219E
:020F22000F229C
:020F23000F239A
:020F24000F2498
:020F25000F2596
:020F26000F2694
:020F27000F2792
:020F28000F2890
:020F29000F298E
:020F2A000F2A8C
:020F2B000F2B8A
:020F2C000F2C88
:020F2D000F2D86
:020F2E000F2E84
:020F2F000F2F82
:020F30000F3080
:020F31000F317E
:020F32000F327C
:020F33000F337A
:020F34000F3478
:020F35000F3576
:020F36000F3674
:020F37000F3772
:020F38000F3870
:020F39000F396E
:020F3A000F3A6C
:020F3B000F3B6A
:020F3C000F3C68
:020F3D000F3D66
:020F3E000F3E64
:020F3F000F3F62
:020F40000F4060
:020F41000F415E
:020F42000F425C
:020F43000F435A
:020F44000F4458
:020F45000F4556
:020F46000F4654
:020F47000F4752
:020F48000F4850
:020F49000F494E
:020F4A000F4A4C
:020F4B000F4B4A
:020F4C000F4C48
:020F4D000F4D46
:020F4E000F4E44
:020F4F000F4F42
:020F50000F5040
:020F51000F513E
:020F52000F523C
:020F53000F533A
:020F54000F5438
:020F55000F5536
:020F56000F5634
:020F57000F5732
:020F58000F5830
:020F59000F592E
:020F5A000F5A2C
:020F5B000F5B2A
:020F5C000F5C28
:020F5D000F5D26
:020F5E000F5E24
:020F5F000F5F22
:020F60000F6020
:020F61000F611E
:020F62000F621C
:020F63000F631A
:020F64000F6418
:020F65000F6516
:020F66000F6614
:020F67000F6712
:020F68000F6810
:020F69000F690E
:020F6A000F6A0C
:020F6B000F6B0A
:020F6C000F6C08
:020F6D000F6D06
:020F6E000F6E04
:020F6F000F6F02
:020F70000F7000
:020F71000F71FE
:020F72000F72FC
:020F73000F73FA
:020F74000F74F8
:020F75000F75F6
:020F76000F76F4
:020F77000F77F2
:020F78000F78F0
:020F79000F79EE
:020F7A000F7AEC
:020F7B000F7BEA
:020F7C000F7CE8
:020F7D000F7DE6
:020F7E000F7EE4
:020F7F000F7FE2
:020F80000F80E0
:020F81000F81DE
:020F82000F82DC
:020F83000F83DA
:020F84000F84D8
:020F85000F85D6
:020F86000F86D4
:020F87000F87D2
:020F88000F88D0
:020F89000F89CE
:020F8A000F8ACC
:020F8B000F8BCA
:020F8C000F8CC8
:020F8D000F8DC6
:020F8E000F8EC4
:020F8F000F8FC2
:020F90000F90C0
:020F91000F91BE
:020F92000F92BC
:020F93000F93BA
:020F94000F94B8
:020F95000F95B6
:020F96000F96B4
:020F97000F97B2
:020F98000F98B0
:020F99000F99AE
:020F9A000F9AAC
:020F9B000F9BAA
:020F9C000F9CA8
:020F9D000F9DA6
:020F9E000F9EA4
:020F9F000F9FA2
